:04000000CBEF00F052
:0600080047828AED01F0C1
:100018004780D8CF62F0E8CF63F0E0CF64F0FACF42
:1000280065F0FBCF66F0E9CF67F0EACF68F0E1CF83
:1000380069F0E2CF6AF0D9CF6BF0DACF6CF0F3CF8A
:100048006DF0F4CF6EF0F6CF6FF0F7CF70F0F8CF19
:1000580071F0F5CF72F047C073F048C074F049C032
:1000680075F04AC076F09EA017D041C013F042C088
:1000780014F0010E166E000E156E2BEC02F01350E4
:10008800CF6E41C0CEFFF10ECC6E000ED76E000EC3
:10009800D66ED58E9E90CA84A1A209D0A9EC02F092
:1000A800DFEC01F0F00EB36E600EB26EA192F0A01C
:1000B80042D0D59ED6CF31F0326AD7500001616F59
:1000C800606B31506025336E32506121346E34BE1E
:1000D8000AD0310E335C750E3458D8A004D0750E92
:1000E800346E300E336E400E176E420E186E0F0EC1
:1000F800196E000E1A6E33C013F034C014F0000EDF
:1001080014BEFF0E156E166ECDEC00F013C021F074
:1001180014C022F015C023F016C024F06DEC02F0D4
:1001280021C02BF022C02CF023C02DF0000ED76E7A
:10013800000ED66EF09076C04AF075C049F074C0D3
:1001480048F073C047F072C0F5FF71C0F8FF70C087
:10015800F7FF6FC0F6FF6EC0F4FF6DC0F3FF6CC011
:10016800DAFF6BC0D9FF6AC0E2FF69C0E1FF68C06F
:10017800EAFF67C0E9FF66C0FBFF65C0FAFF64C01D
:10018800E0FF63C0E8FF62C0D8FF479010004FEF60
:1001980003F0000E1C6E1AAE0AD01A1E191E181E85
:1001A800176C000E182219221A22010E1C6E16AEA8
:1001B8000AD0161E151E141E136C000E14221522CA
:1001C8001622010E1C1A000E1D6E000E1E6E000E69
:1001D8001F6E000E206E1750181019101A10D8B480
:1001E8002AD0010E1B6E06D0D8901736183619364D
:1001F8001A361B2A1AAEF8D7D8901D361E361F3667
:1002080020361750135C18501458195015581A50A6
:100218001658D8A009D01750135E1850145A195000
:10022800155A1A50165A1D80D8901A321932183297
:1002380017321B2EE1D71C50D8B408D0201E1F1E21
:100248001E1E1D6C000E1E221F2220221DC013F030
:100258001EC014F01FC015F020C016F01200165072
:10026800D8B405D0135014101510D8A40CD0000E13
:10027800136E000E146E000E156E1200162AD8901A
:10028800153214321332000E1314186E000E1414A3
:10029800196EFE0E15141A6E185019101A10D8B4CB
:1002A8000CD0ECD7162A010E1326000E1422000ECD
:1002B8001522D890153214321332000E1314186E0A
:1002C800000E1414196EFF0E15141A6E185019101A
:1002D8001A10D8B406D0E6D71606D89013361436B6
:1002E800153614BE03D0020E1660F6D716A0149E5B
:1002F800D8901632165015121750D8A4158E13C060
:1003080013F014C014F015C015F012000600FACF4F
:1003180001F0FBCF02F0E9CF03F0EACF04F0E1CF20
:1003280005F0E2CF06F0D9CF07F0DACF08F0F3CF27
:1003380009F0F4CF0AF0F6CF0BF0F7CF0CF0F8CFB6
:100348000DF0F5CF0EF047C00FF048C010F049C0CF
:1003580011F04AC012F09EA208D08BB002D08B8058
:1003680001D08B909E92F10ECC6E12C04AF011C053
:1003780049F010C048F00FC047F00EC0F5FF0DC09F
:10038800F8FF0CC0F7FF0BC0F6FF0AC0F4FF09C066
:10039800F3FF08C0DAFF07C0D9FF06C0E2FF05C0B7
:1003A800E1FF04C0EAFF03C0E9FF02C0FBFF01C090
:1003B800FAFF4792110038D08B96D8903D34D96E09
:1003C8003E34DA6E770ED926000EDA22DF50896EB7
:1003D80089848B82000E406E010E3F6E12008B9254
:1003E8008994D8903B34D96E3C34DA6E770ED9268E
:1003F800000EDA22DF50896E8B84000E406E020EEA
:100408003F6E12008B94D8903934D96E3A34DA6E34
:10041800770ED926000EDA22DF50896E8B86000E01
:10042800406E000E3F6E12003FC013F040C014F043
:100438001450000AD8A412001350000AD8B4BCD72C
:10044800010AD8B4CCD7030AD8A41200DBD7000E0F
:10045800186E16AE06D0156C161ED8B0162A010EE8
:10046800186E14AE06D0136C141ED8B0142A010EE0
:10047800181A000E1A6E000E196E15501610D8B400
:100488001CD0010E176E04D0D89015361636172AD0
:1004980016AEFAD7D89019361A361550135C16507E
:1004A8001458D8A005D01550135E1650145A198048
:1004B800D89016321532172EEDD71850D8B404D06C
:1004C800196C1A1ED8B01A2A19C013F01AC014F0E1
:1004D8001200000E2A6E8E0E296E24AE11D0241E34
:1004E800231E221E216C000E222223222422010E0A
:1004F8002A6E06D0D8902432233222322132292A79
:10050800000E2114256E000E2214266E000E2314F0
:10051800276EFF0E2414286E255026102710281049
:10052800D8A4E8D721C013F022C014F023C015F0D6
:1005380029C016F02AC017F033EC01F013C021F0DF
:1005480014C022F015C023F0120043C013F044C0B9
:1005580014F0000E166E640E156E2BEC02F013C02C
:100568003DF014C03EF043C013F044C014F0000E38
:10057800166E640E156EE2EC02F013C037F014C06C
:1005880038F037C013F038C014F0000E166E0A0E9B
:10059800156E2BEC02F013C03BF014C03CF037C0D2
:1005A80013F038C014F0000E166E0A0E156EE2EC49
:1005B80002F013C039F014C03AF01200000E186EA1
:1005C80014AE06D0136C141ED8B0142A010E186E7F
:1005D80016AE04D0156C161ED8B0162A1550161073
:1005E800D8B418D0010E176E04D0D8901536163628
:1005F800172A16AEFAD71550135C16501458D8A0FF
:1006080004D01550135E1650145AD890163215326D
:10061800172EF1D71850D8B404D0136C141ED8B0C4
:10062800142A13C013F014C014F01200600ED36E15
:100638000F0EC16E000E926E000E946E9368000E3F
:10064800896E8B90E60E00018B6FAB0E8C6F430E9C
:100658008D6F000E466E000E456E000E406E000E49
:100668003F6E080ED56E910ECD6E040ECA6E810EC9
:10067800B16ED08E9E909D909F909E929D829F82FB
:10068800A192A092A292F090F096F09CF19AF28C2E
:10069800F28EF28CFFD7D80EF66E060EF76E000EAD
:1006A800F86E00EE77F010EE14F00900F5CFEEFFCB
:1006B800E550E150FAE100EE2BF01C0EEE6AE80678
:1006C800FDE147904792000EF86E00011AEF03F023
:1006D800EB002800B300BA007800DA00DB00A800BD
:0406E800FB00FA0019
:020000040020DA
:08000000FFFFFFFFFFFFFFFF00
:020000040030CA
:0E000000FF08181EFF8001FF0FC00FE00F4029
:00000001FF
